:020000040800F2
:100000000028002091150008F5140008FB140008D2
:1000100001150008071500080D1500080000000074
:1000200000000000000000000000000013150008A0
:100030001F150008000000002B15000837150008E8
:10004000D9150008D9150008D9150008D9150008D8
:10005000D9150008D9150008D9150008D9150008C8
:10006000D9150008D9150008D9150008D9150008B8
:10007000D9150008D9150008D9150008D9150008A8
:10008000D9150008D9150008D9150008D915000898
:10009000D9150008D9150008D9150008D915000888
:1000A000D9150008D9150008D9150008D915000878
:1000B00045150008D915000800000000D9150008F2
:1000C000D91500080000000000000000D915000844
:1000D00000000000D9150008D91500080000000034
:1000E000D9150008D9150008D9150008000000002E
:1000F0000000000000000000000000000000000000
:0C01000000000000000000005FF808F1A3
:10010C0010B5054C237833B9044B13B10448AFF345
:10011C0000800123237010BD2C0100200000000082
:10012C00302C000808B5034B1BB103490348AFF34F
:10013C00008008BD0000000030010020302C0008B9
:10014C0080B500AF1C4B1B78022B24D0022B31DC6A
:10015C00002B02D0012B0AD02CE0002000F05AF921
:10016C000346002B21D0144B01221A701DE00020F5
:10017C0000F050F90346002B03D10F4B00221A70EC
:10018C0015E0002000F060F90346002B0FD00A4B5D
:10019C0002221A700BE0002000F03CF90346002B01
:1001AC0007D1054B00221A7003E000BF02E000BF2C
:1001BC0000E000BF00BF80BD4801002080B500AF4B
:1001CC001C4B1B78022B24D0022B31DC002B02D0D1
:1001DC00012B0AD02CE0012000F01CF90346002B67
:1001EC0021D0144B01221A701DE0012000F012F9ED
:1001FC000346002B03D10F4B00221A7015E001208F
:10020C0000F022F90346002B0FD00A4B02221A7081
:10021C000BE0012000F0FEF80346002B07D1054B44
:10022C0000221A7003E000BF02E000BF00E000BF34
:10023C0000BF80BD4901002080B500AF1C4B1B786E
:10024C00022B24D0022B31DC002B02D0012B0AD044
:10025C002CE0022000F0DEF80346002B21D0144BDA
:10026C0001221A701DE0022000F0D4F80346002B86
:10027C0003D10F4B00221A7015E0022000F0E4F8B5
:10028C000346002B0FD00A4B02221A700BE00220FF
:10029C0000F0C0F80346002B07D1054B00221A7062
:1002AC0003E000BF02E000BF00E000BF00BF80BD64
:1002BC004A01002080B500AF1C4B1B78022B24D0C8
:1002CC00022B31DC002B02D0012B0AD02CE00320B6
:1002DC0000F0A0F80346002B21D0144B01221A7019
:1002EC001DE0032000F096F80346002B03D10F4BC2
:1002FC0000221A7015E0002000F0A6F80346002B2F
:10030C000FD00A4B02221A700BE0032000F082F887
:10031C000346002B07D1054B00221A7003E000BFE7
:10032C0002E000BF00E000BF00BF80BD4B01002019
:10033C0090B583B000AF0023FB7154E0FA79FB79E0
:10034C002D49895C2D4AD154FB792D4A52F8232032
:10035C00FB792C4931F81330FC791946104601F021
:10036C0021FC03461A46244B1A55FB79224AD25CCF
:10037C00FB792249CB5C9A4232D1FA79FB791E493E
:10038C00895C214AD154FB791F4AD35C002B1ED1C6
:10039C00FB791E4A32F81330002B03D1FB79184637
:1003AC0000F0A4FBFB79194A32F81330632B09D8FF
:1003BC00FB79164A32F81320013291B2134A22F813
:1003CC0013100DE0FB79124A0121D15408E0FB799E
:1003DC000E4A002122F81310FB790D4A0021D1544A
:1003EC00FB790133FB71FB79032BA7D900BF00BF4D
:1003FC000C37BD4690BD00BF5001002054010020B9
:10040C0008000020000000204C01002058010020B2
:10041C006001002080B483B000AF0346FB71FB7910
:10042C00032B01D9002307E0FB79064AD35C002B90
:10043C000CBF01230023DBB218460C37BD4680BC31
:10044C00704700BF4C01002080B483B000AF03465E
:10045C00FB71FB79032B01D9FF2307E0FB79064ADB
:10046C00D35C012B0CBF01230023DBB218460C37E5
:10047C00BD4680BC704700BF6001002080B582B0D3
:10048C0000AF03460A46FB711346BB71FB79194654
:10049C00002000F06BFABB791946012000F066FAD7
:1004AC0000BF0837BD4680BD80B483B000AF0346A3
:1004BC00FB71044AFB79137000BF0C37BD4680BC3E
:1004CC00704700BF6601002080B500AF804B1B78E1
:1004DC00012B00F0FB807F4B1B78052B00F2C280B8
:1004EC0001A252F823F000BF0D05000857050008C3
:1004FC0095050008D3050008110600084106000800
:10050C004FF40071744801F07CFB744B1B88013371
:10051C009AB2724B1A80714B1B88714AA2FB03234F
:10052C00DB089BB20A2B40F09F806A4B01221A70A9
:10053C006C4B1E221A806C4B5A221A806B4B1E225B
:10054C001A80664B00221A808EE0644B1B880133A4
:10055C009AB2624B1A80614B1B88614AA2FB03233F
:10056C00DB089AB2604B1B885D49A1FB0313DB08C7
:10057C009BB29A427AD100F0C1F8564B02221A7003
:10058C00564B00221A8071E0544B1B8801339AB2EF
:10059C00524B1A80514B1B88514AA2FB0323DB0898
:1005AC009AB2524B1B884E49A1FB0313DB089BB23A
:1005BC009A425DD100F0A2F8464B03221A70474BC9
:1005CC0000221A8054E0454B1B8801339AB2434BEE
:1005DC001A80424B1B88424AA2FB0323DB089AB2C7
:1005EC00404B1B883E49A1FB0313DB089BB29A428C
:1005FC0040D100F083F8374B04221A70374B00229D
:10060C001A8037E0354B1B8801339AB2334B1A8072
:10061C00324B1B88324AA2FB0323DB089BB2042B10
:10062C002AD100F06BF82B4B05221A702B4B0022B1
:10063C001A8021E0294B1B8801339AB2274B1A8070
:10064C00264B1B88264AA2FB0323DB089BB2042BF8
:10065C0014D100F053F81F4B00221A701F4B0022CC
:10066C001A800BE000BF0AE000BF08E000BF06E004
:10067C0000BF04E000BF02E000BF00E000BF174B6A
:10068C001B881B4AA2FB03235B099BB2DAB2194BF2
:10069C001A70124B1B88124AA2FB0323DB089AB276
:1006AC000F4BA3FB0213D9080B469B000B445B00BA
:1006BC00D31A9BB2DAB2104B1A700E4B1B780E4A3F
:1006CC00127811461846FFF7D9FE00E000BF80BD36
:1006DC00180000206601002000080140680100207D
:1006EC00CDCCCCCC1A0000201C0000201E00002019
:1006FC001F85EB51640100206501002080B500AF1F
:10070C006E4B1B78012B44D16D4B1B881D2B08D8CD
:10071C006C4BDB686C4AD2881146184601F071FAB2
:10072C00CAE0674B1B881E2B08D1664BDB68664AF8
:10073C00D1880122184601F04CFABDE0604B1B88B1
:10074C003C2B10D15F4BDB685F4AD18800221846E6
:10075C0001F03FFA5B4B1B695B4A11890122184679
:10076C0001F037FAA8E0564B1B885A2B40F0A480B6
:10077C00544B1B69544A11890022184601F029FA7E
:10078C00504B5B69504A51890122184601F021FAFD
:10079C0092E04A4B1B78022B43D1494B1B88132BFD
:1007AC0008D8484B9B69484A92891146184601F073
:1007BC0028FA81E0424B1B88142B08D1414B9B69D2
:1007CC00414A91890122184601F003FA74E03C4B2E
:1007DC001B881E2B10D13B4B9B693B4A91890022F5
:1007EC00184601F0F6F9374BDB69374AD1890122FB
:1007FC00184601F0EEF95FE0314B1B88322B5BD1D0
:10080C00304BDB69304AD1890022184601F0E1F9FE
:10081C002C4B1B6A2C4A118A0122184601F0D9F97B
:10082C004AE0264B1B78032B46D1284B1B88142BF4
:10083C0018D1244B1B68244A11880122184601F058
:10084C00C8F9204B5B68204A51880022184601F0F9
:10085C00C0F91C4B9B681C4A91880022184601F079
:10086C00B8F929E0194B1B881E2B10D1154B1B68AE
:10087C00154A11880022184601F0ABF9114B5B6840
:10088C00114A51880122184601F0A3F914E00F4BCC
:10089C001B88322B10D10B4B5B680B4A5188002202
:1008AC00184601F096F9074B9B68074A918801227C
:1008BC00184601F08EF900BF00BF80BD6601002014
:1008CC006801002034000020200000201A000020C5
:1008DC0080B582B000AF0346FB800B46BB8013464D
:1008EC007B80FB88002B1CD0BB88002B19D07B880D
:1008FC00002B16D0184B1B78C3F10103DAB2164B40
:10090C001A70164AFB881380154ABB881380154A47
:10091C007B881380144B00221A800120FFF7C4FD42
:10092C0015E00D4B1B78C3F10103DAB20A4B1A70B8
:10093C000A4B1E221A800A4B5A221A80094B1E227D
:10094C001A80094B00221A800120FFF7ADFD00BF71
:10095C000837BD4680BD00BF180000201A000020DB
:10096C001C0000201E0000206801002080B483B011
:10097C0000AF03460A46FB711346BB71FB79012B92
:10098C0007D8BB79092B06D8FB790549BA79CA5423
:10099C0002E000BF00E000BF0C37BD4680BC7047D2
:1009AC006C01002080B584B000AF0346FB710023BE
:1009BC00FB7323E0FA79FB7B42FA03F303F00103A8
:1009CC00002B0CD0FB7B114A52F82300FB7B104A06
:1009DC0032F813300022194601F0FBF80BE0FB7BD8
:1009EC000A4A52F82300FB7B094A32F813300122E1
:1009FC00194601F0EEF8FB7B0133FB73FB7B062BF6
:100A0C00D8D900BF00BF1037BD4680BD7400002090
:100A1C006400002080B582B000AF0346FB71FB7907
:100A2C00012B0CD8FB79084A52F82300FB79074AB2
:100A3C0032F813300122194601F0CBF800E000BF68
:100A4C000837BD4680BD00BF9800002094000020F0
:100A5C0080B582B000AF0346FB71FB79012B0CD83B
:100A6C00FB79084A52F82300FB79074A32F8133015
:100A7C000022194601F0ADF800E000BF0837BD4672
:100A8C0080BD00BF980000209400002080B582B08B
:100A9C0000AF134B1B781846FFF7BCFF104B1B78AD
:100AAC000133002B03F00103B8BF5B42DAB20C4BED
:100ABC001A700B4B1B781A460A4B9B5C1A460A4B56
:100ACC009B5CFB71FB791846FFF76CFF044B1B78A2
:100ADC001846FFF7BDFF00BF0837BD4680BD00BFFD
:100AEC007A0100206C0100205800002080B584B0F1
:100AFC0000AF0346FB71FB79032B00F2CC8001A203
:100B0C0052F823F0210B00083D0B0008D50B000810
:100B1C004B0C0008924B1B7801335A4203F0030331
:100B2C0002F0030258BF5342DAB28D4B1A70B2E096
:100B3C008B4B1B78002B0CD1894B1B7801335A4201
:100B4C0003F0030302F0030258BF5342DAB2844BA2
:100B5C001A70834B1B78012B0ED1824B1A88824B57
:100B6C00A3FB021359080B465B000B44D31A9BB230
:100B7C0001339AB27B4B1A80794B1B78022B0FD125
:100B8C007A4B1B885A087A49A1FB021252095A2146
:100B9C0001FB02F29B1A9BB21E339AB2734B1A8062
:100BAC006F4B1B78032B71D1724B1A886E4BA3FBC6
:100BBC00021359080B465B000B44D31A9BB201334A
:100BCC009AB26C4B1A8061E0654B1B78002B5FD09E
:100BDC00634B1B78012B0DD1624B1B88012B03D16E
:100BEC00604B03221A8005E05E4B1B88013B9AB2D6
:100BFC005C4B1A805A4B1B78022B0DD15B4B1B881C
:100C0C001E2B03D1594B5A221A8005E0574B1B88D7
:100C1C001E3B9AB2554B1A80514B1B78032B39D182
:100C2C00544B1B88012B03D1524B03221A8031E009
:100C3C00504B1B88013B9AB24E4B1A802AE0002382
:100C4C00FB600EE04C4AFB6852F823004B4AFB68F1
:100C5C0032F813300022194600F0BBFFFB68013359
:100C6C00FB60FB68082BEDDD3E4B1B881A46444BA2
:100C7C0033F812303D4A11883E4A12881046414AD8
:100C8C0032F810201846FFF723FE04E000BF02E004
:100C9C0000BF00E000BFFB79032B02D100F0A0F9EC
:100CAC008CE12F4B1B78002B02D0FB79002B06D14B
:100CBC002B4B1B781946002000F0B2F97EE1FB7932
:100CCC00012B03D0FB79022B40F07881244B1B784D
:100CDC00002B06D1224B1B781946002000F0A0F9FE
:100CEC006CE11F4B1B78012B40F083801D4B1B8844
:100CFC00012B18D1204B1B68204A11880122184661
:100D0C0000F067FF1C4B5B681C4A51880022184698
:100D1C0000F05FFF184B9B68184A91880022184618
:100D2C0000F057FF4CE00F4B1B88022B2CD1124BC1
:100D3C001B68124A11880022184600F04AFF0E4B1D
:100D4C005B680E4A51880122184600F042FF0A4B9C
:100D5C009B680A4A91880022184600F03AFF2FE05F
:100D6C007201002074010020ABAAAAAA760100200F
:100D7C00B7600BB678010020EC000020D8000020F2
:100D8C0010010020180100208E4B1B88032B17D15B
:100D9C008D4B1B688D4A11880022184600F019FFF4
:100DAC00894B5B68894A51880022184600F011FF74
:100DBC00854B9B68854A91880122184600F009FFF3
:100DCC00804B1B88824AA2FB0323DB089BB2D8B260
:100DDC007C4B1A887E4BA3FB0213D9080B469B0055
:100DEC000B445B00D31A9BB2DBB2194600F018F926
:100DFC00E4E0784B1B78022B6ED1774B1B881E2BB3
:100E0C0018D1714BDB68714AD1880122184600F069
:100E1C00E0FE6D4B1B696D4A11890022184600F0EB
:100E2C00D8FE694B5B69694A51890022184600F06B
:100E3C00D0FE38E0684B1B883C2B18D1624BDB682A
:100E4C00624AD1880022184600F0C3FE5E4B1B6933
:100E5C005E4A11890122184600F0BBFE5A4B5B69B1
:100E6C005A4A51890022184600F0B3FE1BE05A4B37
:100E7C001B885A2B17D1544BDB68544AD18800225B
:100E8C00184600F0A6FE504B1B69504A11890022EF
:100E9C00184600F09EFE4C4B5B694C4A518901226E
:100EAC00184600F096FE4C4B1B88494AA2FB0323C4
:100EBC00DB089BB2D8B2484B1A88454BA3FB0213F4
:100ECC00D9080B469B000B445B00D31A9BB2DBB2D8
:100EDC00194600F0A5F871E03E4B1B78032B6DD141
:100EEC003E4B1B88012B18D1374B9B69374A918994
:100EFC000122184600F06DFE334BDB69334AD18971
:100F0C000022184600F065FE2F4B1B6A2F4A118AEF
:100F1C000022184600F05DFE38E0304B1B88022B97
:100F2C0018D1294B9B69294A91890022184600F057
:100F3C0050FE254BDB69254AD1890122184600F069
:100F4C0048FE214B1B6A214A118A0022184600F0E8
:100F5C0040FE1BE0214B1B88032B17D11A4B9B69BE
:100F6C001A4A91890022184600F033FE164BDB69B1
:100F7C00164AD1890022184600F02BFE124B1B6A30
:100F8C00124A118A0122184600F023FE134B1B88CB
:100F9C000F4AA2FB0323DB089BB2D8B20F4B1A8873
:100FAC000B4BA3FB0213D9080B469B000B445B00B5
:100FBC00D31A9BB2DBB2194600F032F81037BD469B
:100FCC0080BD00BF74010020EC000020D800002080
:100FDC00CDCCCCCC72010020760100207801002011
:100FEC0080B500AF0A4B00221A80094B1A88094BB6
:100FFC001A80084B1A88084B1A80074B1B88DAB2E8
:10100C00064B1A700021002000F00AF800BF80BDCA
:10101C00780100207601002074010020720100206C
:10102C0080B483B000AF03460A46FB711346BB7114
:10103C00FB79092B09D8BB79092B06D8054AFB7912
:10104C001370044ABB79537000E000BF0C37BD46E7
:10105C0080BC70477001002080B584B000AF03469F
:10106C00FB710023FB7323E0FA79FB7B42FA03F359
:10107C0003F00103002B0CD0FB7B114A52F8230028
:10108C00FB7B104A32F813300022194600F0A1FD08
:10109C000BE0FB7B0A4A52F82300FB7B094A32F82F
:1010AC0013300122194600F094FDFB7B0133FB73D6
:1010BC00FB7B062BD8D900BF00BF1037BD4680BDC7
:1010CC00B0000020A000002080B582B000AF034625
:1010DC00FB71FB79012B0CD8FB79084A52F82300E1
:1010EC00FB79074A32F813300122194600F071FDE2
:1010FC0000E000BF0837BD4680BD00BFD000002017
:10110C00CC00002080B582B000AF0346FB71FB79A8
:10111C00012B0CD8FB79084A52F82300FB79074ABB
:10112C0032F813300022194600F053FD00E000BFE6
:10113C000837BD4680BD00BFD0000020CC00002089
:10114C0080B582B000AF134B1B781846FFF7BCFF7D
:10115C00104B1B780133002B03F00103B8BF5B422B
:10116C00DAB20C4B1A700B4B1B781A460A4B9B5C71
:10117C001A460A4B9B5CFB71FB791846FFF76CFF18
:10118C00044B1B781846FFF7BDFF00BF0837BD4660
:10119C0080BD00BF7B0100207001002058000020A2
:1011AC0080B483B000AF78607B68084A82FB03127E
:1011BC009210DB17D31A064A1360064B00221A60F2
:1011CC0000BF0C37BD4680BC704700BF67666666C3
:1011DC007C0100208001002080B400AF074B1B680D
:1011EC00002B02DC064B01221A60044B1B68013BEE
:1011FC00024A136000BFBD4680BC70477C010020D2
:10120C008001002080B500AF00F0E2F900F026F874
:10121C0000F0ACF800F05EF80E4801F043F9002045
:10122C00FFF742F93220FFF7BBFF0B4B1B68012B7A
:10123C0006D1FFF749F9FFF761FA3220FFF7B0FF4B
:10124C00FEF77EFFFEF7BAFFFEF7F6FFFFF732F868
:10125C00EBE700BF840100208001002080B590B036
:10126C0000AF07F1180328220021184601F0D2FC28
:10127C003B1D00221A605A609A60DA601A610223E0
:10128C00BB610123BB621023FB6200237B6307F16C
:10129C001803184600F0CEFC0346002B01D000F0DA
:1012AC00C7F80F237B600023BB600023FB60002387
:1012BC003B6100237B613B1D0021184600F03AFF87
:1012CC000346002B01D000F0B3F800BF4037BD46F9
:1012DC0080BD000080B586B000AF07F10803002286
:1012EC001A605A609A60DA603B4600221A605A60B3
:1012FC001D4B4FF080421A601B4B41F63F725A60F7
:10130C00194B00229A60184B0922DA60164B002206
:10131C001A61154B00229A61134801F073F80346C9
:10132C00002B01D000F084F84FF48053BB6007F120
:10133C00080319460C4801F009FA0346002B01D0AA
:10134C0000F076F800233B6000237B603B46194697
:10135C00054801F0D1FB0346002B01D000F068F8E2
:10136C0000BF1837BD4680BD8401002080B586B013
:10137C0000AF07F1080300221A605A609A60DA6025
:10138C00284B9B69274A43F004039361254B9B69C7
:10139C0003F004037B607B68224B9B69214A43F07A
:1013AC00080393611F4B9B6903F008033B603B6888
:1013BC0000224FF6FF711C4800F00BFC00224FF688
:1013CC00F0711A4800F005FC4FF6FF73BB60012367
:1013DC00FB6000233B6102237B6107F10803194684
:1013EC00114800F065FA0F23BB600023FB6000235B
:1013FC003B6107F1080319460C4800F059FA4FF607
:10140C00F073BB600123FB6000233B6102237B6113
:10141C0007F108031946054800F04AFA00BF1837CF
:10142C00BD4680BD0010024000080140000C014088
:10143C0080B400AF72B600BFFEE7000080B485B088
:10144C0000AF154B9B69144A43F001039361124B97
:10145C009B6903F00103BB60BB680F4BDB690E4A51
:10146C0043F08053D3610C4BDB6903F080537B60FA
:10147C007B680A4B5B68FB60FB6823F0E063FB60F6
:10148C00FB6843F08063FB60044AFB68536000BF59
:10149C001437BD4680BC704700100240000001406C
:1014AC0080B584B000AF78607B681B68B3F1804F67
:1014BC0013D10C4BDB690B4A43F00103D361094B8D
:1014CC00DB6903F00103FB60FB68002200211C2098
:1014DC0000F0B7F91C2000F0D0F900BF1037BD4662
:1014EC0080BD00BF0010024080B400AFFEE780B4A6
:1014FC0000AFFEE780B400AFFEE780B400AFFEE7BC
:10150C0080B400AFFEE780B400AF00BFBD4680BC26
:10151C00704780B400AF00BFBD4680BC704780B43C
:10152C0000AF00BFBD4680BC704780B500AF00F077
:10153C0095F800BF80BD000080B500AF024800F0F8
:10154C00FDFF00BF80BD00BF8401002080B400AF50
:10155C0000BFBD4680BC704780B582B000AF7860DC
:10156C007B681B68B3F1804F07D1FFF735FEFFF79F
:10157C008DFAFFF7E5FDFEF7DBFE00BF0837BD4631
:10158C0080BD00000C480D490D4A002302E0D458E0
:10159C00C4500433C4188C42F9D30A4A0A4C0023B1
:1015AC0001E013600432A242FBD3FFF7CFFF01F03E
:1015BC000DFBFFF727FE7047000000202C010020D8
:1015CC00702C00082C010020D0010020FEE7000048
:1015DC0080B500AF084B1B68074A43F0100313603B
:1015EC00032000F023F90F2000F008F8FFF726FF86
:1015FC000023184680BD00BF0020024080B582B099
:10160C0000AF7860124B1A68124B1B7819464FF4D6
:10161C007A73B3FBF1F3B2FBF3F3184600F03BF92A
:10162C000346002B01D001230EE07B680F2B0AD858
:10163C00002279684FF0FF3000F003F9064A7B680E
:10164C001360002300E0012318460837BD4680BD17
:10165C0020010020280100202401002080B400AFCC
:10166C00054B1B781A46054B1B681344034A136041
:10167C0000BFBD4680BC704728010020CC01002073
:10168C0080B400AF024B1B681846BD4680BC704747
:10169C00CC01002080B485B000AF78607B6803F08B
:1016AC000703FB600C4BDB68BB60BA684FF6FF03AB
:1016BC001340BB60FB681A02BB68134343F0BF6363
:1016CC0043F40033BB60044ABB68D36000BF1437DB
:1016DC00BD4680BC704700BF00ED00E080B400AF99
:1016EC00044BDB681B0A03F007031846BD4680BC9D
:1016FC00704700BF00ED00E080B483B000AF03463C
:10170C00FB7197F90730002B0BDBFB7903F01F0201
:10171C00064997F907305B09012000FA02F241F8FB
:10172C00232000BF0C37BD4680BC704700E100E0B1
:10173C0080B483B000AF03463960FB7197F9073072
:10174C00002B0ADB3B68DAB20C4997F9073012011F
:10175C00D2B20B4483F800230AE03B68DAB20849A2
:10176C00FB7903F00F03043B1201D2B20B441A763F
:10177C0000BF0C37BD4680BC704700BF00E100E0E5
:10178C0000ED00E080B489B000AFF860B9607A6019
:10179C00FB6803F00703FB61FB69C3F10703042B30
:1017AC0028BF0423BB61FB690433062B02D9FB69F8
:1017BC00033B00E000237B614FF0FF32BB6902FA70
:1017CC0003F3DA43BB681A407B699A404FF0FF3150
:1017DC007B6901FA03F3D9437B680B40134318462A
:1017EC002437BD4680BC704780B582B000AF7860AE
:1017FC007B68013BB3F1807F01D301230FE00A4AE0
:10180C007B68013B53600F214FF0FF30FFF790FFD7
:10181C00054B00229A60044B07221A6000231846DD
:10182C000837BD4680BD00BF10E000E080B582B037
:10183C0000AF78607868FFF72DFF00BF0837BD4612
:10184C0080BD80B586B000AF0346B9607A60FB738B
:10185C0000237B61FFF742FF78617A68B968786989
:10186C00FFF790FF024697F90F3011461846FFF725
:10187C005FFF00BF1837BD4680BD80B582B000AF9A
:10188C000346FB7197F907301846FFF735FF00BF89
:10189C000837BD4680BD80B582B000AF78607868EF
:1018AC00FFF7A2FF034618460837BD4680BD00006F
:1018BC0080B48BB000AF7860396000237B6200236A
:1018CC003B6248E101227B6A02FA03F3FB613B684D
:1018DC001B68FA691340BB61BA69FB699A4240F014
:1018EC0037813B685B68A34A93425ED0A14A93421E
:1018FC0075D8A14A934258D09F4A93426FD89F4AB9
:10190C00934252D09D4A934269D89D4A93424CD0FF
:10191C009B4A934263D89B4A934246D0994A93423E
:10192C005DD8122B2AD8122B59D801A252F823F0C9
:10193C00B719000891190008A3190008E519000847
:10194C00EB190008EB190008EB190008EB1900085B
:10195C00EB190008EB190008EB190008EB1900084B
:10196C00EB190008EB190008EB190008EB1900083B
:10197C00EB19000899190008AD190008824A934226
:10198C0013D02CE03B68DB683B6229E03B68DB68EA
:10199C0004333B6224E03B68DB6808333B621FE0A6
:1019AC003B68DB680C333B621AE03B689B68002B9E
:1019BC0002D104233B6213E03B689B68012B05D1E9
:1019CC0008233B627B68FA691A6109E008233B62D1
:1019DC007B68FA695A6103E000233B6200E000BFB8
:1019EC00BB69FF2B01D87B6801E07B6804337B610A
:1019FC00BB69FF2B02D87B6A9B0002E07B6A083B29
:101A0C009B003B617B691A680F213B6901FA03F368
:101A1C00DB431A40396A3B6901FA03F31A437B69C9
:101A2C001A603B685B6803F08053002B00F09080D9
:101A3C00564B9B69554A43F001039361534B9B6989
:101A4C0003F00103BB60BB68514A7B6A9B080233FD
:101A5C0052F82330FB607B6A03F003039B000F22D8
:101A6C0002FA03F3DB43FA681340FB607B68494AD4
:101A7C0093420DD07B68484A934207D07B68474A13
:101A8C00934201D1022304E0032302E0012300E08E
:101A9C0000237A6A02F0030292009340FA6813431F
:101AAC00FB603B497B6A9B080233FA6841F82320B0
:101ABC003B685B6803F48033002B06D0384B1A6804
:101ACC003749BB6913430B6006E0354B1A68BB6999
:101ADC00DB43334913400B603B685B6803F4003312
:101AEC00002B06D02E4B5A682D49BB6913434B6013
:101AFC0006E02B4B5A68BB69DB43294913404B600A
:101B0C003B685B6803F48013002B06D0244B9A6867
:101B1C002349BB6913438B6006E0214B9A68BB6970
:101B2C00DB431F4913408B603B685B6803F4001375
:101B3C00002B06D01A4BDA681949BB691343CB60EA
:101B4C0006E0174BDA68BB69DB4315491340CB60E1
:101B5C007B6A01337B623B681A687B6A22FA03F367
:101B6C00002B7FF4AFAE00BF00BF2C37BD4680BC4E
:101B7C00704700BF0000321000003110000022102E
:101B8C000000211000001210000011100010024083
:101B9C000000014000080140000C01400010014011
:101BAC000004014080B485B000AF78600B467B80A8
:101BBC007B689A687B881340002B02D00123FB734F
:101BCC0001E00023FB73FB7B18461437BD4680BC39
:101BDC00704780B483B000AF78600B467B801346AF
:101BEC007B707B78002B03D07A887B681A6103E0CA
:101BFC007B881A047B681A6100BF0C37BD4680BC19
:101C0C00704780B485B000AF78600B467B807B68F2
:101C1C00DB68FB607A88FB6813401A04FB68D943C5
:101C2C007B880B401A437B681A6100BF1437BD4692
:101C3C0080BC704780B586B000AF78607B68002BA5
:101C4C0001D101236CE27B681B6803F00103002BBC
:101C5C0000F08780924B5B6803F00C03042B0CD0D4
:101C6C008F4B5B6803F00C03082B12D18C4B5B6819
:101C7C0003F48033B3F5803F0BD1894B1B6803F41D
:101C8C000033002B6CD07B685B68002B68D1012380
:101C9C0046E27B685B68B3F5803F06D1804B1B68DE
:101CAC007F4A43F4803313602EE07B685B68002B23
:101CBC000CD17B4B1B687A4A23F480331360784B2E
:101CCC001B68774A23F4802313601DE07B685B68F4
:101CDC00B3F5A02F0CD1724B1B68714A43F48023CF
:101CEC0013606F4B1B686E4A43F4803313600BE038
:101CFC006B4B1B686A4A23F480331360684B1B6878
:101D0C00674A23F4802313607B685B68002B13D035
:101D1C00FFF7B6FC386108E0FFF7B2FC02463B69FE
:101D2C00D31A642B01D90323FAE15D4B1B6803F42E
:101D3C000033002BF0D014E0FFF7A2FC386108E070
:101D4C00FFF79EFC02463B69D31A642B01D903238F
:101D5C00E6E1534B1B6803F40033002BF0D100E099
:101D6C0000BF7B681B6803F00203002B63D04C4B55
:101D7C005B6803F00C03002B0BD0494B5B6803F042
:101D8C000C03082B1CD1464B5B6803F48033002BEF
:101D9C0016D1434B1B6803F00203002B05D07B6864
:101DAC001B69012B01D00123BAE13D4B1B6823F0C9
:101DBC00F8027B685B69DB00394913430B603AE03E
:101DCC007B681B69002B20D0364B01221A60FFF771
:101DDC0057FC386108E0FFF753FC02463B69D31A05
:101DEC00022B01D903239BE12D4B1B6803F002034B
:101DFC00002BF0D02A4B1B6823F0F8027B685B6940
:101E0C00DB00274913430B6015E0264B00221A60B8
:101E1C00FFF736FC386108E0FFF732FC02463B69FD
:101E2C00D31A022B01D903237AE11D4B1B6803F053
:101E3C000203002BF0D17B681B6803F00803002B16
:101E4C003AD07B689B69002B19D0174B01221A6082
:101E5C00FFF716FC386108E0FFF712FC02463B69FD
:101E6C00D31A022B01D903235AE10D4B5B6A03F001
:101E7C000203002BF0D0012000F0A6FA1CE00A4B64
:101E8C0000221A60FFF7FCFB38610FE0FFF7F8FB4C
:101E9C0002463B69D31A022B08D9032340E100BF49
:101EAC000010024000004242800442429E4B5B6A9A
:101EBC0003F00203002BE9D17B681B6803F00403D9
:101ECC00002B00F0A6800023FB75974BDB6903F019
:101EDC008053002B0DD1944BDB69934A43F0805314
:101EEC00D361914BDB6903F08053BB60BB6801236A
:101EFC00FB758E4B1B6803F48073002B18D18B4B36
:101F0C001B688A4A43F480731360FFF7B9FB38618E
:101F1C0008E0FFF7B5FB02463B69D31A642B01D9E5
:101F2C000323FDE0814B1B6803F48073002BF0D07E
:101F3C007B68DB68012B06D17B4B1B6A7A4A43F02A
:101F4C00010313622DE07B68DB68002B0CD1764B10
:101F5C001B6A754A23F001031362734B1B6A724AA6
:101F6C0023F0040313621CE07B68DB68052B0CD1A7
:101F7C006D4B1B6A6C4A43F0040313626A4B1B6A79
:101F8C00694A43F0010313620BE0674B1B6A664A14
:101F9C0023F001031362644B1B6A634A23F00403AE
:101FAC0013627B68DB68002B15D0FFF769FB386187
:101FBC000AE0FFF765FB02463B69D31A41F288320F
:101FCC00934201D90323ABE0574B1B6A03F0020386
:101FDC00002BEED014E0FFF753FB38610AE0FFF75B
:101FEC004FFB02463B69D31A41F28832934201D926
:101FFC00032395E04C4B1B6A03F00203002BEED13C
:10200C00FB7D012B05D1484BDB69474A23F08053FC
:10201C00D3617B68DB69002B00F08180424B5B68ED
:10202C0003F00C03082B61D07B68DB69022B46D1D3
:10203C003F4B00221A60FFF723FB386108E0FFF7E3
:10204C001FFB02463B69D31A022B01D9032367E01D
:10205C00354B1B6803F00073002BF0D17B681B6AB7
:10206C00B3F5803F08D1304B5B6823F400327B68BA
:10207C009B682D4913434B602B4B5B6823F4741204
:10208C007B68196A7B685B6A0B43274913434B6077
:10209C00274B01221A60FFF7F3FA386108E0FFF7CB
:1020AC00EFFA02463B69D31A022B01D9032337E01E
:1020BC001D4B1B6803F00073002BF0D02FE01C4B62
:1020CC0000221A60FFF7DCFA386108E0FFF7D8FA53
:1020DC0002463B69D31A022B01D9032320E0124B91
:1020EC001B6803F00073002BF0D118E07B68DB69F0
:1020FC00012B01D1012313E00B4B5B68FB60FB68E8
:10210C0003F480327B681B6A9A4206D1FB6803F4A5
:10211C0070127B685B6A9A4201D0012300E00023B5
:10212C0018461837BD4680BD0010024000700040B4
:10213C006000424280B584B000AF786039607B6843
:10214C00002B01D10123D0E06A4B1B6803F007037D
:10215C003A689A4210D9674B1B6823F0070265490D
:10216C003B6813430B60634B1B6803F007033A682F
:10217C009A4201D00123B8E07B681B6803F002038C
:10218C00002B20D07B681B6803F00403002B05D0C8
:10219C00594B5B68584A43F4E06353607B681B6897
:1021AC0003F00803002B05D0534B5B68524A43F4F1
:1021BC0060535360504B5B6823F0F0027B689B6864
:1021CC004D4913434B607B681B6803F00103002BE4
:1021DC0040D07B685B68012B07D1474B1B6803F42D
:1021EC000033002B15D101237FE07B685B68022B49
:1021FC0007D1414B1B6803F00073002B09D101235D
:10220C0073E03D4B1B6803F00203002B01D101234B
:10221C006BE0394B5B6823F003027B685B683649E3
:10222C0013434B60FFF72CFAF8600AE0FFF728FA2B
:10223C000246FB68D31A41F28832934201D9032338
:10224C0053E02D4B5B6803F00C027B685B689B00D2
:10225C009A42EBD1274B1B6803F007033A689A426A
:10226C0010D2244B1B6823F0070222493B6813430E
:10227C000B60204B1B6803F007033A689A4201D0AD
:10228C00012332E07B681B6803F00403002B08D0A9
:10229C00194B5B6823F4E0627B68DB6816491343D7
:1022AC004B607B681B6803F00803002B09D0124BB2
:1022BC005B6823F460527B681B69DB000E49134397
:1022CC004B6000F021F802460B4B5B681B0903F0D6
:1022DC000F030A49CB5C22FA03F3094A1360094B3A
:1022EC001B681846FFF78AF9002318461037BD46BD
:1022FC0080BD00BF0020024000100240582C000896
:10230C00200100202401002090B48AB000AF2A4B99
:10231C003C1D0FCB84E80F0040F201233B800023CF
:10232C00FB610023BB6100237B6200237B610023E4
:10233C003B62224B5B68FB61FB6903F00C03042BD3
:10234C0002D0082B03D02DE01D4B3B622DE0FB6926
:10235C009B0C03F00F0307F12802134413F8243CE1
:10236C007B61FB6903F48033002B13D0134B5B6848
:10237C005B0C03F0010307F12802134413F8283C0B
:10238C00BB617B690E4A02FB03F2BB69B2FBF3F340
:10239C007B6204E07B690B4A02FB03F37B627B6A82
:1023AC003B6202E0064B3B6200BF3B6A1846283793
:1023BC00BD4690BC704700BF482C0008001002407E
:1023CC0000127A0000093D0080B485B000AF78603F
:1023DC000A4B1B680A4AA2FB03235B0A7A6802FBBE
:1023EC0003F3FB6000BFFB685A1EFA60002BF9D1A7
:1023FC0000BF00BF1437BD4680BC704720010020D1
:10240C00D34D621080B582B000AF78607B68002B32
:10241C0001D1012341E07B6893F83D30DBB2002B06
:10242C0006D17B68002283F83C207868FFF738F8E7
:10243C007B68022283F83D207B681A687B68043332
:10244C001946104600F06AFA7B68012283F8462090
:10245C007B68012283F83E207B68012283F83F20B1
:10246C007B68012283F840207B68012283F841209D
:10247C007B68012283F842207B68012283F8432089
:10248C007B68012283F844207B68012283F8452075
:10249C007B68012283F83D20002318460837BD468F
:1024AC0080BD000080B485B000AF78607B6893F885
:1024BC003D30DBB2012B01D0012335E07B680222D9
:1024CC0083F83D207B681B68DA687B681B6842F0E8
:1024DC000102DA607B681B68164A934209D07B685C
:1024EC001B68B3F1804F04D07B681B68124A93427F
:1024FC0011D17B681B689B6803F00703FB60FB68CA
:10250C00062B10D07B681B681A687B681B6842F02E
:10251C0001021A6007E07B681B681A687B681B68FD
:10252C0042F001021A60002318461437BD4680BCE5
:10253C00704700BF002C01400004004080B582B001
:10254C0000AF78607B681B681B6903F00203022BE9
:10255C0022D17B681B68DB6803F00203022B1BD1C2
:10256C007B681B686FF002021A617B6801221A7784
:10257C007B681B689B6903F00303002B03D078680E
:10258C0000F0B1F905E0786800F0A4F9786800F083
:10259C00B3F97B6800221A777B681B681B6903F010
:1025AC000403042B22D17B681B68DB6803F0040353
:1025BC00042B1BD17B681B686FF004021A617B68CB
:1025CC0002221A777B681B689B6903F44073002B0B
:1025DC0003D0786800F087F905E0786800F07AF9A4
:1025EC00786800F089F97B6800221A777B681B6891
:1025FC001B6903F00803082B22D17B681B68DB687E
:10260C0003F00803082B1BD17B681B686FF00802D2
:10261C001A617B6804221A777B681B68DB6903F0FC
:10262C000303002B03D0786800F05DF905E07868AF
:10263C0000F050F9786800F05FF97B6800221A7797
:10264C007B681B681B6903F01003102B22D17B687D
:10265C001B68DB6803F01003102B1BD17B681B6815
:10266C006FF010021A617B6808221A777B681B686E
:10267C00DB6903F44073002B03D0786800F033F966
:10268C0005E0786800F026F9786800F035F97B6889
:10269C0000221A777B681B681B6903F00103012B6E
:1026AC000ED17B681B68DB6803F00103012B07D19B
:1026BC007B681B686FF001021A617868FEF74CFFAB
:1026CC007B681B681B6903F08003802B0ED17B6831
:1026DC001B68DB6803F08003802B07D17B681B68C9
:1026EC006FF080021A61786800F067FA7B681B68EB
:1026FC001B6903F04003402B0ED17B681B68DB6821
:10270C0003F04003402B07D17B681B686FF040023D
:10271C001A61786800F0F9F87B681B681B6903F094
:10272C002003202B0ED17B681B68DB6803F0200391
:10273C00202B07D17B681B686FF020021A61786828
:10274C0000F032FA00BF0837BD4680BD80B584B0BA
:10275C0000AF786039607B6893F83C30012B01D175
:10276C000223B3E07B68012283F83C207B680222C1
:10277C0083F83D207B681B689B68FB60FB6823F03B
:10278C007703FB60FB6823F47F43FB607B681B686B
:10279C00FA689A603B681B68B3F5005F3ED0B3F5EE
:1027AC00005F00F28780B3F5805F00F08580B3F5A1
:1027BC00805F7FD8702B1AD0702B7BD8602B50D0B9
:1027CC00602B77D8502B3CD0502B73D8402B58D043
:1027DC00402B6FD8302B64D0302B6BD8202B60D093
:1027EC00202B67D8002B5CD0102B5AD062E07B6872
:1027FC0018683B6899683B685A683B68DB6800F06E
:10280C005CF97B681B689B68FB60FB6843F0770393
:10281C00FB607B681B68FA689A604EE07B681868FE
:10282C003B6899683B685A683B68DB6800F045F97F
:10283C007B681B689A687B681B6842F480429A60CC
:10284C003BE07B6818683B6859683B68DB681A4654
:10285C0000F0BCF87B681B685021184600F013F997
:10286C002BE07B6818683B6859683B68DB681A4644
:10287C0000F0DAF87B681B686021184600F003F959
:10288C001BE07B6818683B6859683B68DB681A4634
:10289C0000F09CF87B681B684021184600F0F3F8A8
:1028AC000BE07B681A683B681B681946104600F001
:1028BC00EAF802E000BF00E000BF7B68012283F869
:1028CC003D207B68002283F83C20002318461037FB
:1028DC00BD4680BD80B483B000AF786000BF0C37BC
:1028EC00BD4680BC704780B483B000AF786000BF39
:1028FC000C37BD4680BC704780B483B000AF7860A5
:10290C0000BF0C37BD4680BC704780B483B000AFAD
:10291C00786000BF0C37BD4680BC704780B485B072
:10292C0000AF786039607B681B68FB607B68254A68
:10293C00934207D07B68B3F1804F03D07B68224A67
:10294C00934208D1FB6823F07003FB603B685B6823
:10295C00FA681343FB607B681A4A934207D07B6882
:10296C00B3F1804F03D07B68174A934208D1FB68C0
:10297C0023F44073FB603B68DB68FA681343FB602D
:10298C00FB6823F080023B685B691343FB607B6848
:10299C00FA681A603B689A687B68DA623B681A6866
:1029AC007B689A627B68074A934203D13B681A6939
:1029BC007B681A637B6801225A6100BF1437BD46DD
:1029CC0080BC7047002C01400004004080B487B0EC
:1029DC0000AFF860B9607A60FB681B6A7B61FB68CA
:1029EC001B6A23F00102FB681A62FB689B693B615E
:1029FC003B6923F0F0033B617B681B013A6913438D
:102A0C003B617B6923F00A037B617A69BB681343E2
:102A1C007B61FB683A699A61FB687A691A6200BF4C
:102A2C001C37BD4680BC704780B487B000AFF860DF
:102A3C00B9607A60FB681B6A23F01002FB681A62AB
:102A4C00FB689B697B61FB681B6A3B617B6923F4B8
:102A5C0070437B617B681B037A6913437B613B6921
:102A6C0023F0A0033B61BB681B013A6913433B6134
:102A7C00FB687A699A61FB683A691A6200BF1C3775
:102A8C00BD4680BC704780B485B000AF78603960BB
:102A9C007B689B68FB60FB6823F07003FB603A6803
:102AAC00FB68134343F00703FB607B68FA689A608A
:102ABC0000BF1437BD4680BC704780B487B000AFF0
:102ACC00F860B9607A603B60FB689B687B617B69EE
:102ADC0023F47F437B613B681A027B681A43BB6813
:102AEC0013437A6913437B61FB687A699A6000BF70
:102AFC001C37BD4680BC704780B485B000AF786091
:102B0C0039607B6893F83C30012B01D1022341E002
:102B1C007B68012283F83C207B68022283F83D20ED
:102B2C007B681B685B68FB607B681B689B68BB6091
:102B3C00FB6823F07003FB603B681B68FA68134367
:102B4C00FB607B681B68FA685A607B681B68144AD8
:102B5C00934209D07B681B68B3F1804F04D07B682B
:102B6C001B68104A93420CD1BB6823F08003BB60F6
:102B7C003B685B68BA681343BB607B681B68BA68C8
:102B8C009A607B68012283F83D207B68002283F8E1
:102B9C003C20002318461437BD4680BC704700BF4C
:102BAC00002C01400004004080B483B000AF78607A
:102BBC0000BF0C37BD4680BC704780B483B000AFFB
:102BCC00786000BF0C37BD4680BC704770B50026DE
:102BDC000C4D0D4C641BA410A64209D100F022F838
:102BEC0000260A4D0A4C641BA410A64205D170BDE8
:102BFC0055F8043B98470136EEE755F8043B9847E7
:102C0C000136F2E7682C0008682C0008682C0008D4
:102C1C006C2C000803460244934200D1704703F821
:102C2C00011BF9E7F8B500BFF8BC08BC9E4670471D
:0C2C3C00F8B500BFF8BC08BC9E4670470D
:102C480002030405060708090A0B0C0D0E0F1010E5
:102C58000000000000000000010203040607080944
:042C6800310100082E
:042C6C000D0100084E
:102C70000100020004000800000C0140000C0140AB
:102C8000000C0140000C014001001E005A001E0013
:102C900000020001800000100008000400800040D5
:102CA0000020000000080140000801400008014029
:102CB00000080140000801400008014000080140F0
:102CC00000080140000801403F065B4F666D7D072C
:102CD0007F6F0000010002000400080010002000C7
:102CE00040000000000801400008014000080140C9
:102CF00000080140000801400008014000080140B0
:102D00000000000010002000000C0140000C0140F9
:102D100000020004000800100020004000800000B5
:102D2000000C0140000C0140000C0140000C01406F
:102D3000000C0140000C0140000C014040008000EC
:102D4000000C0140000C0140000200018000001056
:102D5000000800040080004000200000000801403E
:102D6000000801400008014000080140000801403F
:102D7000000801400008014000080140000801402F
:102D8000000014001E003200000014001E0032007B
:0C2D90000024F40010000000010000000E
:040000050800159149
:00000001FF
