:020000040800F2
:100000000028002045120008A9110008AF110008BF
:10001000B5110008BB110008C11100080000000064
:10002000000000000000000000000000C7110008F0
:10003000D311000800000000DF110008EB110008D8
:100040008D1200088D1200088D1200088D12000814
:100050008D1200088D1200088D1200088D12000804
:100060008D1200088D1200088D1200088D120008F4
:100070008D1200088D1200088D1200088D120008E4
:100080008D1200088D1200088D1200088D120008D4
:100090008D1200088D1200088D1200088D120008C4
:1000A0008D1200088D1200088D1200088D120008B4
:1000B000F91100088D120008000000008D120008E0
:1000C0008D12000800000000000000008D120008E2
:1000D000000000008D1200088D12000800000000D2
:1000E0008D1200088D1200088D120008000000001B
:1000F0000000000000000000000000000000000000
:0C01000000000000000000005FF808F1A3
:10010C0010B5054C237833B9044B13B10448AFF345
:10011C0000800123237010BDAC0000200000000003
:10012C00B428000808B5034B1BB103490348AFF3CF
:10013C00008008BD00000000B0000020B4280008BA
:10014C0080B500AF1C4B1B78022B24D0022B31DC6A
:10015C00002B02D0012B0AD02CE0002000F05AF921
:10016C000346002B21D0144B01221A701DE00020F5
:10017C0000F050F90346002B03D10F4B00221A70EC
:10018C0015E0002000F060F90346002B0FD00A4B5D
:10019C0002221A700BE0002000F03CF90346002B01
:1001AC0007D1054B00221A7003E000BF02E000BF2C
:1001BC0000E000BF00BF80BDC800002080B500AFCC
:1001CC001C4B1B78022B24D0022B31DC002B02D0D1
:1001DC00012B0AD02CE0012000F01CF90346002B67
:1001EC0021D0144B01221A701DE0012000F012F9ED
:1001FC000346002B03D10F4B00221A7015E001208F
:10020C0000F022F90346002B0FD00A4B02221A7081
:10021C000BE0012000F0FEF80346002B07D1054B44
:10022C0000221A7003E000BF02E000BF00E000BF34
:10023C0000BF80BDC900002080B500AF1C4B1B78EF
:10024C00022B24D0022B31DC002B02D0012B0AD044
:10025C002CE0022000F0DEF80346002B21D0144BDA
:10026C0001221A701DE0022000F0D4F80346002B86
:10027C0003D10F4B00221A7015E0022000F0E4F8B5
:10028C000346002B0FD00A4B02221A700BE00220FF
:10029C0000F0C0F80346002B07D1054B00221A7062
:1002AC0003E000BF02E000BF00E000BF00BF80BD64
:1002BC00CA00002080B500AF1C4B1B78022B24D049
:1002CC00022B31DC002B02D0012B0AD02CE00320B6
:1002DC0000F0A0F80346002B21D0144B01221A7019
:1002EC001DE0032000F096F80346002B03D10F4BC2
:1002FC0000221A7015E0002000F0A6F80346002B2F
:10030C000FD00A4B02221A700BE0032000F082F887
:10031C000346002B07D1054B00221A7003E000BFE7
:10032C0002E000BF00E000BF00BF80BDCB0000209A
:10033C0090B583B000AF0023FB7154E0FA79FB79E0
:10034C002D49895C2D4AD154FB792D4A52F8232032
:10035C00FB792C4931F81330FC791946104601F021
:10036C007BFA03461A46244B1A55FB79224AD25C77
:10037C00FB792249CB5C9A4232D1FA79FB791E493E
:10038C00895C214AD154FB791F4AD35C002B1ED1C6
:10039C00FB791E4A32F81330002B03D1FB79184637
:1003AC0000F0FAFAFB79194A32F81330632B09D8AA
:1003BC00FB79164A32F81320013291B2134A22F813
:1003CC0013100DE0FB79124A0121D15408E0FB799E
:1003DC000E4A002122F81310FB790D4A0021D1544A
:1003EC00FB790133FB71FB79032BA7D900BF00BF4D
:1003FC000C37BD4690BD00BFD0000020D4000020BB
:10040C000800002000000020CC000020D8000020B4
:10041C00E000002080B483B000AF0346FB71FB7991
:10042C00032B01D9002307E0FB79064AD35C002B90
:10043C000CBF01230023DBB218460C37BD4680BC31
:10044C00704700BFCC00002080B483B000AF0346DF
:10045C00FB71FB79032B01D9FF2307E0FB79064ADB
:10046C00D35C012B0CBF01230023DBB218460C37E5
:10047C00BD4680BC704700BFE000002080B582B054
:10048C0000AF03460A46FB711346BB71FB79194654
:10049C00002000F0C1F9BB791946012000F0BCF92D
:1004AC0000BF0837BD4680BD80B483B000AF0346A3
:1004BC00FB71044AFB79137000BF0C37BD4680BC3E
:1004CC00704700BFE400002080B500AFAC4B1B7838
:1004DC00022B00F0F780022B00F34781002B03D096
:1004EC00012B00F0918040E101228021A54801F010
:1004FC00CAF900224FF48071A24801F0C4F900221D
:10050C004FF400719F4801F0BEF99F4B1A889F4B26
:10051C001B889A423AD89E4B1B889E4AA2FB032307
:10052C00DB089BB2DAB2984B1B889A49A1FB0313E8
:10053C00DB089BB2DBB2D31ADAB2974B1A70934B2F
:10054C001B88944AA2FB0323DB089BB2DAB28E4BC6
:10055C001B889049A1FB0313DB089BB2DBB2D31AB7
:10056C00DAB28E4B1A7000224FF48061854801F08C
:10057C008AF900224FF40061824801F084F90122CB
:10058C004FF480517F4801F07EF929E0804B1B88A5
:10059C00804AA2FB0323DB089BB2DAB27A4B1B889E
:1005AC007C49A1FB0313DB089BB2DBB2D31ADAB292
:1005BC007A4B1A70794B1A78774B1A7000224FF4D9
:1005CC008061704801F05FF901224FF400616D48C1
:1005DC0001F059F900224FF480516A4801F053F9A7
:1005EC00694B1B8801339AB2674B1A80664B1A8889
:1005FC00674B1B889A4240F0B380614B01221A7002
:10060C00614B00221A80ABE0604B1B88614AA2FB55
:10061C000323DB089BB2DAB25B4B1B885D49A1FB61
:10062C000313DB089BB2DBB2D31ADAB25A4B1A7043
:10063C00574B1B88574AA2FB0323DB089BB2DAB249
:10064C00514B1B885349A1FB0313DB089BB2DBB254
:10065C00D31ADAB2514B1A7000228021494801F0AA
:10066C0012F900224FF48071464801F00CF9012276
:10067C004FF40071434801F006F901224FF48061F8
:10068C00404801F000F900224FF400613D4801F0B0
:10069C00FAF800224FF480513A4801F0F4F83A4B42
:1006AC001B8801339AB2384B1A80374B1A88374B58
:1006BC001B889A4256D1324B02221A70324B0022BE
:1006CC001A804FE0364B1B88324AA2FB0323DB080F
:1006DC009BB2DAB22C4B1B882E49A1FB0313DB080F
:1006EC009BB2DBB2D31ADAB22C4B1A702B4B1A78A2
:1006FC00294B1A7000228021224801F0C4F80122F3
:10070C004FF480711F4801F0BEF800224FF40071C5
:10071C001C4801F0B8F801224FF48061194801F02F
:10072C00B2F800224FF40061164801F0ACF8002238
:10073C004FF48051134801F0A6F8134B1B8801337A
:10074C009AB2114B1A80104B1A88154B1B889A427F
:10075C000AD10B4B00221A700B4B00221A8003E0BB
:10076C0000BF02E000BF00E000BF0B4B1B780B4A40
:10077C00127811461846FFF781FE00BF80BD00BFFE
:10078C00E400002000080140E80000201C000020CC
:10079C0018000020CDCCCCCCE5000020E6000020D9
:1007AC001A00002080B582B000AF0346FB800B46D8
:1007BC00BB8013467B80FA88B9887B880B449A42AD
:1007CC000FD1114AFB881380104ABB881380104A42
:1007DC007B8813800F4B00221A800020FFF764FEE9
:1007EC000EE0094B32221A80084B14221A80084B57
:1007FC001E221A80074B00221A800020FFF754FE9D
:10080C0000BF0837BD4680BD180000201A0000202C
:10081C001C000020E800002080B483B000AF034629
:10082C000A46FB711346BB71FB79012B07D8BB79C8
:10083C00092B06D8FB790549BA79CA5402E000BFE6
:10084C0000E000BF0C37BD4680BC7047EC000020B8
:10085C0080B584B000AF0346FB710023FB7323E02B
:10086C00FA79FB7B42FA03F303F00103002B0CD063
:10087C00FB7B114A52F82300FB7B104A32F81330F1
:10088C000022194600F0FFFF0BE0FB7B0A4A52F8EE
:10089C002300FB7B094A32F813300122194600F081
:1008AC00F2FFFB7B0133FB73FB7B062BD8D900BF1C
:1008BC0000BF1037BD4680BD3C0000202C0000203E
:1008CC0080B582B000AF0346FB71FB79012B0CD8CD
:1008DC00FB79084A52F82300FB79074A32F81330A7
:1008EC000122194600F0CFFF00E000BF0837BD46DB
:1008FC0080BD00BF600000205C00002080B582B08D
:10090C0000AF0346FB71FB79012B0CD8FB79084A2D
:10091C0052F82300FB79074A32F8133000221946AB
:10092C0000F0B1FF00E000BF0837BD4680BD00BF3E
:10093C00600000205C00002080B582B000AF134B3B
:10094C001B781846FFF7BCFF104B1B780133002BAC
:10095C0003F00103B8BF5B42DAB20C4B1A700B4BBD
:10096C001B781A460A4B9B5C1A460A4B9B5CFB7124
:10097C00FB791846FFF76CFF044B1B781846FFF702
:10098C00BDFF00BF0837BD4680BD00BFF200002090
:10099C00EC0000202000002080B582B000AF0346A0
:1009AC00FB71FB79002B0DD1A14B1B7801335A4203
:1009BC0003F0030302F0030258BF5342DAB29C4B1C
:1009CC001A7096E0FB79012B4DD1994B1B78002BBB
:1009DC000CD1974B1B7801335A4203F0030302F0FE
:1009EC00030258BF5342DAB2914B1A70904B1B78EA
:1009FC00012B0FD18F4B1B8801338F4A82FB0312C3
:100A0C005111DA178A1A642101FB02F29A1A92B276
:100A1C00884B1A80864B1B78022B0FD1874B1B8877
:100A2C000133854A82FB03125111DA178A1A6421A9
:100A3C0001FB02F29A1A92B2804B1A807C4B1B7803
:100A4C00032B56D17E4B1B8801337B4A82FB03124E
:100A5C005111DA178A1A642101FB02F29A1A92B226
:100A6C00774B1A8045E0FB79022B36D1704B1B7803
:100A7C00012B0DD16F4B1B88002B03D16D4B6322C7
:100A8C001A8005E06B4B1B88013B9AB2694B1A80AC
:100A9C00674B1B78022B0DD1684B1B88002B03D1A5
:100AAC00664B63221A8005E0644B1B88013B9AB2AB
:100ABC00624B1A805E4B1B78032B1AD1604B1B8840
:100ACC00002B03D15E4B63221A8012E05C4B1B8817
:100ADC00013B9AB25A4B1A800BE0FB79032B08D1DD
:100AEC00544B1B88554A1188554A12881846FFF7F3
:100AFC0059FE4F4B1B78002B02D0FB79002B06D1F3
:100B0C004B4B1B781946002000F0E6F8D8E0FB7937
:100B1C00012B62D1464B1B78002B06D1444B1B7822
:100B2C001946002000F0D8F8CAE0414B1B78012B85
:100B3C0018D1404B1B88434AA2FB0323DB089BB212
:100B4C00D8B23C4B1A883F4BA3FB0213D9080B4677
:100B5C009B000B445B00D31A9BB2DBB2194600F02E
:100B6C00BBF8ADE0324B1B78022B18D1334B1B88F2
:100B7C00344AA2FB0323DB089BB2D8B22F4B1A8852
:100B8C00304BA3FB0213D9080B469B000B445B00B4
:100B9C00D31A9BB2DBB2194600F09EF890E0244BBE
:100BAC001B78032B40F08C80254B1B88254AA2FB1D
:100BBC000323DB089BB2D8B2214B1A88214BA3FB31
:100BCC000213D9080B469B000B445B00D31A9BB253
:100BDC00DBB2194600F080F872E0FB79022B6DD184
:100BEC00134B1B78002B06D1114B1B781946002098
:100BFC0000F072F864E00E4B1B78012B24D10D4BE6
:100C0C001B88104AA2FB0323DB089BB2D8B2094B0A
:100C1C001A880C4BA3FB0213D9080B469B000B4400
:100C2C005B00D31A9BB2DBB2194600F055F847E0D3
:100C3C00F3000020F40000201F85EB51F60000208B
:100C4C00F8000020CDCCCCCC1F4B1B78022B18D13C
:100C5C001E4B1B881E4AA2FB0323DB089BB2D8B297
:100C6C001A4B1A881A4BA3FB0213D9080B469B008C
:100C7C000B445B00D31A9BB2DBB2194600F02CF884
:100C8C001EE0114B1B78032B1AD1124B1B88104AF8
:100C9C00A2FB0323DB089BB2D8B20E4B1A880C4B79
:100CAC00A3FB0213D9080B469B000B445B00D31A21
:100CBC009BB2DBB2194600F00FF801E0FB79032B75
:100CCC000837BD4680BD00BFF3000020F6000020B1
:100CDC00CDCCCCCCF800002080B483B000AF034660
:100CEC000A46FB711346BB71FB79092B09D8BB79FA
:100CFC00092B06D8054AFB791370044ABB7953704B
:100D0C0000E000BF0C37BD4680BC7047F0000020EF
:100D1C0080B584B000AF0346FB710023FB7323E066
:100D2C00FA79FB7B42FA03F303F00103002B0CD09E
:100D3C00FB7B114A52F82300FB7B104A32F813302C
:100D4C000022194600F09FFD0BE0FB7B0A4A52F88B
:100D5C002300FB7B094A32F813300122194600F0BC
:100D6C0092FDFB7B0133FB73FB7B062BD8D900BFB9
:100D7C0000BF1037BD4680BD780000206800002001
:100D8C0080B582B000AF0346FB71FB79012B0CD808
:100D9C00FB79084A52F82300FB79074A32F81330E2
:100DAC000122194600F06FFD00E000BF0837BD4678
:100DBC0080BD00BF980000209400002080B582B058
:100DCC0000AF0346FB71FB79012B0CD8FB79084A69
:100DDC0052F82300FB79074A32F8133000221946E7
:100DEC0000F051FD00E000BF0837BD4680BD00BFDC
:100DFC00980000209400002080B582B000AF134B07
:100E0C001B781846FFF7BCFF104B1B780133002BE7
:100E1C0003F00103B8BF5B42DAB20C4B1A700B4BF8
:100E2C001B781A460A4B9B5C1A460A4B9B5CFB715F
:100E3C00FB791846FFF76CFF044B1B781846FFF73D
:100E4C00BDFF00BF0837BD4680BD00BFFA000020C3
:100E5C00F00000202000002080B483B000AF786048
:100E6C007B68084A82FB03129210DB17D31A064ADE
:100E7C001360064B00221A6000BF0C37BD4680BCC5
:100E8C00704700BF67666666FC000020000100200A
:100E9C0080B400AF074B1B68002B02DC064B012211
:100EAC001A60044B1B68013B024A136000BFBD462D
:100EBC0080BC7047FC0000200001002080B500AF12
:100ECC0000F0E0F900F024F800F0AAF800F05CF86B
:100EDC000D4801F029F90020FFF7E6FA3220FFF760
:100EEC00BBFF0A4B1B68012B04D1FFF7EDFA322034
:100EFC00FFF7B2FFFFF724F9FFF760F9FFF79CF952
:100F0C00FFF7D8F9EDE700BF040100200001002035
:100F1C0080B590B000AF07F11803282200211846C5
:100F2C0001F0BAFC3B1D00221A605A609A60DA602C
:100F3C001A610223BB610123BB621023FB620023F5
:100F4C007B6307F11803184600F0B6FC0346002B30
:100F5C0001D000F0C7F80F237B600023BB60002397
:100F6C00FB6000233B6100237B613B1D0021184685
:100F7C0000F022FF0346002B01D000F0B3F800BFB5
:100F8C004037BD4680BD000080B586B000AF07F18C
:100F9C00080300221A605A609A60DA603B4600220D
:100FAC001A605A601D4B4FF080421A601B4B41F681
:100FBC003F725A60194B00229A60184B0922DA6072
:100FCC00164B00221A61154B00229A61134801F04E
:100FDC005BF80346002B01D000F084F84FF48053EB
:100FEC00BB6007F1080319460C4801F0F1F9034600
:100FFC00002B01D000F076F800233B6000237B60CF
:10100C003B461946054801F0B9FB0346002B01D0BD
:10101C0000F068F800BF1837BD4680BD0401002001
:10102C0080B586B000AF07F1080300221A605A6041
:10103C009A60DA60284B9B69274A43F0040393615A
:10104C00254B9B6903F004037B607B68224B9B69F7
:10105C00214A43F0080393611F4B9B6903F008037B
:10106C003B603B68002241F6FF711C4800F00BFC12
:10107C0000224FF6F0611A4800F005FC41F6FF73B0
:10108C00BB600123FB6000233B6102237B6107F102
:10109C0008031946114800F065FA0F23BB600023C2
:1010AC00FB6000233B6107F1080319460C4800F074
:1010BC0059FA4FF6F063BB600123FB6000233B61E0
:1010CC0002237B6107F108031946054800F04AFA30
:1010DC0000BF1837BD4680BD00100240000801401B
:1010EC00000C014080B400AF72B600BFFEE70000F8
:1010FC0080B485B000AF154B9B69144A43F00103D3
:10110C009361124B9B6903F00103BB60BB680F4BEF
:10111C00DB690E4A43F08053D3610C4BDB6903F05F
:10112C0080537B607B680A4B5B68FB60FB6823F039
:10113C00E063FB60FB6843F08063FB60044AFB6880
:10114C00536000BF1437BD4680BC7047001002408E
:10115C000000014080B584B000AF78607B681B68EC
:10116C00B3F1804F13D10C4BDB690B4A43F00103F5
:10117C00D361094BDB6903F00103FB60FB680022C0
:10118C0000211C2000F0B7F91C2000F0D0F900BFA2
:10119C001037BD4680BD00BF0010024080B400AFC8
:1011AC00FEE780B400AFFEE780B400AFFEE780B48A
:1011BC0000AFFEE780B400AFFEE780B400AF00BF25
:1011CC00BD4680BC704780B400AF00BFBD4680BC3C
:1011DC00704780B400AF00BFBD4680BC704780B57F
:1011EC0000AF00F095F800BF80BD000080B500AFE7
:1011FC00024800F0E5FF00BF80BD00BF04010020E5
:10120C0080B400AF00BFBD4680BC704780B582B0D3
:10121C0000AF78607B681B68B3F1804F07D1FFF794
:10122C0037FEFFF789FBFFF7E7FDFFF781F800BFFB
:10123C000837BD4680BD00000C480D490D4A0023FF
:10124C0002E0D458C4500433C4188C42F9D30A4A6F
:10125C000A4C002301E013600432A242FBD3FFF7D7
:10126C00CFFF01F0F5FAFFF729FE704700000020D0
:10127C00AC000020F4280008AC0000205001002035
:10128C00FEE7000080B500AF084B1B68074A43F02F
:10129C0010031360032000F023F90F2000F008F86E
:1012AC00FFF726FF0023184680BD00BF0020024038
:1012BC0080B582B000AF7860124B1A68124B1B7865
:1012CC0019464FF47A73B3FBF1F3B2FBF3F3184600
:1012DC0000F03BF90346002B01D001230EE07B68A4
:1012EC000F2B0AD8002279684FF0FF3000F003F979
:1012FC00064A7B681360002300E001231846083778
:10130C00BD4680BDA0000020A8000020A400002045
:10131C0080B400AF054B1B781A46054B1B68134471
:10132C00034A136000BFBD4680BC7047A800002074
:10133C004C01002080B400AF024B1B681846BD4620
:10134C0080BC70474C01002080B485B000AF786041
:10135C007B6803F00703FB600C4BDB68BB60BA686F
:10136C004FF6FF031340BB60FB681A02BB681343C4
:10137C0043F0BF6343F40033BB60044ABB68D360E3
:10138C0000BF1437BD4680BC704700BF00ED00E0C5
:10139C0080B400AF044BDB681B0A03F0070318464C
:1013AC00BD4680BC704700BF00ED00E080B483B048
:1013BC0000AF0346FB7197F90730002B0BDBFB7971
:1013CC0003F01F02064997F907305B09012000FA68
:1013DC0002F241F8232000BF0C37BD4680BC704799
:1013EC0000E100E080B483B000AF03463960FB71CC
:1013FC0097F90730002B0ADB3B68DAB20C4997F9F6
:10140C0007301201D2B20B4483F800230AE03B6888
:10141C00DAB20849FB7903F00F03043B1201D2B294
:10142C000B441A7600BF0C37BD4680BC704700BF1A
:10143C0000E100E000ED00E080B489B000AFF8609E
:10144C00B9607A60FB6803F00703FB61FB69C3F1C9
:10145C000703042B28BF0423BB61FB690433062B51
:10146C0002D9FB69033B00E000237B614FF0FF32A4
:10147C00BB6902FA03F3DA43BB681A407B699A40F2
:10148C004FF0FF317B6901FA03F3D9437B680B40C2
:10149C00134318462437BD4680BC704780B582B0D4
:1014AC0000AF78607B68013BB3F1807F01D30123EF
:1014BC000FE00A4A7B68013B53600F214FF0FF306D
:1014CC00FFF790FF054B00229A60044B07221A602D
:1014DC00002318460837BD4680BD00BF10E000E071
:1014EC0080B582B000AF78607868FFF72DFF00BF41
:1014FC000837BD4680BD80B586B000AF0346B960E5
:10150C007A60FB7300237B61FFF742FF78617A6896
:10151C00B9687869FFF790FF024697F90F301146CA
:10152C001846FFF75FFF00BF1837BD4680BD80B57A
:10153C0082B000AF0346FB7197F907301846FFF7EE
:10154C0035FF00BF0837BD4680BD80B582B000AF07
:10155C0078607868FFF7A2FF034618460837BD4647
:10156C0080BD000080B48BB000AF78603960002380
:10157C007B6200233B6248E101227B6A02FA03F39F
:10158C00FB613B681B68FA691340BB61BA69FB6974
:10159C009A4240F037813B685B68A34A93425ED025
:1015AC00A14A934275D8A14A934258D09F4A93427C
:1015BC006FD89F4A934252D09D4A934269D89D4A14
:1015CC0093424CD09B4A934263D89B4A934246D059
:1015DC00994A93425DD8122B2AD8122B59D801A2C2
:1015EC0052F823F06B160008451600085716000831
:1015FC00991600089F1600089F1600089F160008F1
:10160C009F1600089F1600089F1600089F160008DA
:10161C009F1600089F1600089F1600089F160008CA
:10162C009F1600089F1600084D160008611600084A
:10163C00824A934213D02CE03B68DB683B6229E082
:10164C003B68DB6804333B6224E03B68DB680833AF
:10165C003B621FE03B68DB680C333B621AE03B6883
:10166C009B68002B02D104233B6213E03B689B6810
:10167C00012B05D108233B627B68FA691A6109E0EA
:10168C0008233B627B68FA695A6103E000233B62E2
:10169C0000E000BFBB69FF2B01D87B6801E07B68D1
:1016AC0004337B61BB69FF2B02D87B6A9B0002E091
:1016BC007B6A083B9B003B617B691A680F213B6985
:1016CC0001FA03F3DB431A40396A3B6901FA03F36D
:1016DC001A437B691A603B685B6803F08053002BEC
:1016EC0000F09080564B9B69554A43F0010393617F
:1016FC00534B9B6903F00103BB60BB68514A7B6A87
:10170C009B08023352F82330FB607B6A03F003031F
:10171C009B000F2202FA03F3DB43FA681340FB60D1
:10172C007B68494A93420DD07B68484A934207D064
:10173C007B68474A934201D1022304E0032302E071
:10174C00012300E000237A6A02F003029200934026
:10175C00FA681343FB603B497B6A9B080233FA68C7
:10176C0041F823203B685B6803F48033002B06D0E0
:10177C00384B1A683749BB6913430B6006E0354B8D
:10178C001A68BB69DB43334913400B603B685B68E9
:10179C0003F40033002B06D02E4B5A682D49BB693D
:1017AC0013434B6006E02B4B5A68BB69DB4329495A
:1017BC0013404B603B685B6803F48013002B06D02E
:1017CC00244B9A682349BB6913438B6006E0214B79
:1017DC009A68BB69DB431F4913408B603B685B68AD
:1017EC0003F40013002B06D01A4BDA681949BB69B5
:1017FC001343CB6006E0174BDA68BB69DB43154932
:10180C001340CB607B6A01337B623B681A687B6A4E
:10181C0022FA03F3002B7FF4AFAE00BF00BF2C37CE
:10182C00BD4680BC704700BF000032100000311074
:10183C0000002210000021100000121000001110F6
:10184C00001002400000014000080140000C014063
:10185C00001001400004014080B485B000AF7860F6
:10186C000B467B807B689A687B881340002B02D0E8
:10187C000123FB7301E00023FB73FB7B1846143739
:10188C00BD4680BC704780B483B000AF78600B4617
:10189C007B8013467B707B78002B03D07A887B6827
:1018AC001A6103E07B881A047B681A6100BF0C374D
:1018BC00BD4680BC7047000080B586B000AF786034
:1018CC007B68002B01D101236CE27B681B6803F061
:1018DC000103002B00F08780924B5B6803F00C0334
:1018EC00042B0CD08F4B5B6803F00C03082B12D12C
:1018FC008C4B5B6803F48033B3F5803F0BD1894B81
:10190C001B6803F40033002B6CD07B685B68002BE6
:10191C0068D1012346E27B685B68B3F5803F06D152
:10192C00804B1B687F4A43F4803313602EE07B6846
:10193C005B68002B0CD17B4B1B687A4A23F48033F9
:10194C001360784B1B68774A23F4802313601DE0E7
:10195C007B685B68B3F5A02F0CD1724B1B68714A86
:10196C0043F4802313606F4B1B686E4A43F480333F
:10197C0013600BE06B4B1B686A4A23F480331360D3
:10198C00684B1B68674A23F4802313607B685B6891
:10199C00002B13D0FFF7CEFC386108E0FFF7CAFC30
:1019AC0002463B69D31A642B01D90323FAE15D4B40
:1019BC001B6803F40033002BF0D014E0FFF7BAFCE3
:1019CC00386108E0FFF7B6FC02463B69D31A642B7A
:1019DC0001D90323E6E1534B1B6803F40033002BBE
:1019EC00F0D100E000BF7B681B6803F00203002B02
:1019FC0063D04C4B5B6803F00C03002B0BD0494BB2
:101A0C005B6803F00C03082B1CD1464B5B6803F49A
:101A1C008033002B16D1434B1B6803F00203002BC1
:101A2C0005D07B681B69012B01D00123BAE13D4B2A
:101A3C001B6823F0F8027B685B69DB0039491343B0
:101A4C000B603AE07B681B69002B20D0364B0122DF
:101A5C001A60FFF76FFC386108E0FFF76BFC024679
:101A6C003B69D31A022B01D903239BE12D4B1B6835
:101A7C0003F00203002BF0D02A4B1B6823F0F80272
:101A8C007B685B69DB00274913430B6015E0264B31
:101A9C0000221A60FFF74EFC386108E0FFF74AFCA1
:101AAC0002463B69D31A022B01D903237AE11D4B61
:101ABC001B6803F00203002BF0D17B681B6803F05A
:101ACC000803002B3AD07B689B69002B19D0174B6D
:101ADC0001221A60FFF72EFC386108E0FFF72AFCA0
:101AEC0002463B69D31A022B01D903235AE10D4B51
:101AFC005B6A03F00203002BF0D0012000F0A6FA81
:101B0C001CE00A4B00221A60FFF714FC38610FE04E
:101B1C00FFF710FC02463B69D31A022B08D90323AA
:101B2C0040E100BF001002400000424280044242EB
:101B3C009E4B5B6A03F00203002BE9D17B681B68A8
:101B4C0003F00403002B00F0A6800023FB75974BD9
:101B5C00DB6903F08053002B0DD1944BDB69934A66
:101B6C0043F08053D361914BDB6903F08053BB602E
:101B7C00BB680123FB758E4B1B6803F48073002B31
:101B8C0018D18B4B1B688A4A43F480731360FFF7A0
:101B9C00D1FB386108E0FFF7CDFB02463B69D31A55
:101BAC00642B01D90323FDE0814B1B6803F4807384
:101BBC00002BF0D07B68DB68012B06D17B4B1B6ABA
:101BCC007A4A43F0010313622DE07B68DB68002B3B
:101BDC000CD1764B1B6A754A23F001031362734BCD
:101BEC001B6A724A23F0040313621CE07B68DB68F7
:101BFC00052B0CD16D4B1B6A6C4A43F0040313622A
:101C0C006A4B1B6A694A43F0010313620BE0674B92
:101C1C001B6A664A23F001031362644B1B6A634A16
:101C2C0023F0040313627B68DB68002B15D0FFF7ED
:101C3C0081FB38610AE0FFF77DFB02463B69D31A52
:101C4C0041F28832934201D90323ABE0574B1B6A14
:101C5C0003F00203002BEED014E0FFF76BFB3861AE
:101C6C000AE0FFF767FB02463B69D31A41F2883260
:101C7C00934201D9032395E04C4B1B6A03F00203FA
:101C8C00002BEED1FB7D012B05D1484BDB69474A7C
:101C9C0023F08053D3617B68DB69002B00F08180DB
:101CAC00424B5B6803F00C03082B61D07B68DB694B
:101CBC00022B46D13F4B00221A60FFF73BFB3861E9
:101CCC0008E0FFF737FB02463B69D31A022B01D918
:101CDC00032367E0354B1B6803F00073002BF0D136
:101CEC007B681B6AB3F5803F08D1304B5B6823F4EB
:101CFC0000327B689B682D4913434B602B4B5B6810
:101D0C0023F474127B68196A7B685B6A0B4327495E
:101D1C0013434B60274B01221A60FFF70BFB386112
:101D2C0008E0FFF707FB02463B69D31A022B01D9E7
:101D3C00032337E01D4B1B6803F00073002BF0D01E
:101D4C002FE01C4B00221A60FFF7F4FA386108E010
:101D5C00FFF7F0FA02463B69D31A022B01D9032391
:101D6C0020E0124B1B6803F00073002BF0D118E03D
:101D7C007B68DB69012B01D1012313E00B4B5B6802
:101D8C00FB60FB6803F480327B681B6A9A4206D1C5
:101D9C00FB6803F470127B685B6A9A4201D00123E2
:101DAC0000E0002318461837BD4680BD00100240E5
:101DBC00007000406000424280B584B000AF786093
:101DCC0039607B68002B01D10123D0E06A4B1B6882
:101DDC0003F007033A689A4210D9674B1B6823F04B
:101DEC00070265493B6813430B60634B1B6803F0A8
:101DFC0007033A689A4201D00123B8E07B681B685C
:101E0C0003F00203002B20D07B681B6803F0040353
:101E1C00002B05D0594B5B68584A43F4E063536080
:101E2C007B681B6803F00803002B05D0534B5B68E1
:101E3C00524A43F460535360504B5B6823F0F002FA
:101E4C007B689B684D4913434B607B681B6803F0B0
:101E5C000103002B40D07B685B68012B07D1474BFB
:101E6C001B6803F40033002B15D101237FE07B6842
:101E7C005B68022B07D1414B1B6803F00073002BEE
:101E8C0009D1012373E03D4B1B6803F00203002BC7
:101E9C0001D101236BE0394B5B6823F003027B68B3
:101EAC005B68364913434B60FFF744FAF8600AE06D
:101EBC00FFF740FA0246FB68D31A41F2883293428C
:101ECC0001D9032353E02D4B5B6803F00C027B68B4
:101EDC005B689B009A42EBD1274B1B6803F007030E
:101EEC003A689A4210D2244B1B6823F0070222490D
:101EFC003B6813430B60204B1B6803F007033A68E5
:101F0C009A4201D0012332E07B681B6803F0040382
:101F1C00002B08D0194B5B6823F4E0627B68DB680C
:101F2C00164913434B607B681B6803F00803002BB6
:101F3C0009D0124B5B6823F460527B681B69DB0091
:101F4C000E4913434B6000F021F802460B4B5B68C3
:101F5C001B0903F00F030A49CB5C22FA03F3094A6D
:101F6C001360094B1B681846FFF7A2F900231846AB
:101F7C001037BD4680BD00BF00200240001002405B
:101F8C00DC280008A0000020A400002090B48AB037
:101F9C0000AF2A4B3C1D0FCB84E80F0040F201230D
:101FAC003B800023FB610023BB6100237B62002389
:101FBC007B6100233B62224B5B68FB61FB6903F096
:101FCC000C03042B02D0082B03D02DE01D4B3B62DD
:101FDC002DE0FB699B0C03F00F0307F1280213445F
:101FEC0013F8243C7B61FB6903F48033002B13D082
:101FFC00134B5B685B0C03F0010307F128021344DD
:10200C0013F8283CBB617B690E4A02FB03F2BB69E7
:10201C00B2FBF3F37B6204E07B690B4A02FB03F334
:10202C007B627B6A3B6202E0064B3B6200BF3B6A11
:10203C0018462837BD4690BC704700BFCC28000816
:10204C000010024000127A0000093D0080B485B0F7
:10205C0000AF78600A4B1B680A4AA2FB03235B0A99
:10206C007A6802FB03F3FB6000BFFB685A1EFA6040
:10207C00002BF9D100BF00BF1437BD4680BC7047A0
:10208C00A0000020D34D621080B582B000AF786004
:10209C007B68002B01D1012341E07B6893F83D3034
:1020AC00DBB2002B06D17B68002283F83C207868D9
:1020BC00FFF750F87B68022283F83D207B681A6892
:1020CC007B6804331946104600F06AFA7B680122DB
:1020DC0083F846207B68012283F83E207B6801222E
:1020EC0083F83F207B68012283F840207B68012223
:1020FC0083F841207B68012283F842207B6801220F
:10210C0083F843207B68012283F844207B680122FA
:10211C0083F845207B68012283F83D200023184674
:10212C000837BD4680BD000080B485B000AF786034
:10213C007B6893F83D30DBB2012B01D0012335E0F5
:10214C007B68022283F83D207B681B68DA687B6819
:10215C001B6842F00102DA607B681B68164A9342E6
:10216C0009D07B681B68B3F1804F04D07B681B6877
:10217C00124A934211D17B681B689B6803F00703DA
:10218C00FB60FB68062B10D07B681B681A687B68A9
:10219C001B6842F001021A6007E07B681B681A6832
:1021AC007B681B6842F001021A6000231846143742
:1021BC00BD4680BC704700BF002C014000040040AD
:1021CC0080B582B000AF78607B681B681B6903F038
:1021DC000203022B22D17B681B68DB6803F002032D
:1021EC00022B1BD17B681B686FF002021A617B68A3
:1021FC0001221A777B681B689B6903F00303002B91
:10220C0003D0786800F0B1F905E0786800F0A4F923
:10221C00786800F0B3F97B6800221A777B681B683A
:10222C001B6903F00403042B22D17B681B68DB6859
:10223C0003F00403042B1BD17B681B686FF00402B2
:10224C001A617B6802221A777B681B689B6903F40E
:10225C004073002B03D0786800F087F905E07868AC
:10226C0000F07AF9786800F089F97B6800221A7717
:10227C007B681B681B6903F00803082B22D17B6861
:10228C001B68DB6803F00803082B1BD17B681B68F9
:10229C006FF008021A617B6804221A777B681B684E
:1022AC00DB6903F00303002B03D0786800F05DF9C1
:1022BC0005E0786800F050F9786800F05FF97B6809
:1022CC0000221A777B681B681B6903F01003102B24
:1022DC0022D17B681B68DB6803F01003102B1BD129
:1022EC007B681B686FF010021A617B6808221A77F2
:1022FC007B681B68DB6903F44073002B03D07868A0
:10230C0000F033F905E0786800F026F9786800F001
:10231C0035F97B6800221A777B681B681B6903F010
:10232C000103012B0ED17B681B68DB6803F00103F2
:10233C00012B07D17B681B686FF001021A6178686A
:10234C00FEF764FF7B681B681B6903F08003802B1E
:10235C000ED17B681B68DB6803F08003802B07D1F0
:10236C007B681B686FF080021A61786800F067FA6E
:10237C007B681B681B6903F04003402B0ED17B6804
:10238C001B68DB6803F04003402B07D17B681B689C
:10239C006FF040021A61786800F0F9F87B681B68EE
:1023AC001B6903F02003202B0ED17B681B68DB68B4
:1023BC0003F02003202B07D17B681B686FF02002F1
:1023CC001A61786800F032FA00BF0837BD4680BD4C
:1023DC0080B584B000AF786039607B6893F83C308E
:1023EC00012B01D10223B3E07B68012283F83C204E
:1023FC007B68022283F83D207B681B689B68FB602E
:10240C00FB6823F07703FB60FB6823F47F43FB60DE
:10241C007B681B68FA689A603B681B68B3F5005FC1
:10242C003ED0B3F5005F00F28780B3F5805F00F01B
:10243C008580B3F5805F7FD8702B1AD0702B7BD83A
:10244C00602B50D0602B77D8502B3CD0502B73D8AE
:10245C00402B58D0402B6FD8302B64D0302B6BD8FE
:10246C00202B60D0202B67D8002B5CD0102B5AD09F
:10247C0062E07B6818683B6899683B685A683B68FF
:10248C00DB6800F05CF97B681B689B68FB60FB6891
:10249C0043F07703FB607B681B68FA689A604EE038
:1024AC007B6818683B6899683B685A683B68DB68CE
:1024BC0000F045F97B681B689A687B681B6842F4DE
:1024CC0080429A603BE07B6818683B6859683B68BF
:1024DC00DB681A4600F0BCF87B681B685021184674
:1024EC0000F013F92BE07B6818683B6859683B686F
:1024FC00DB681A4600F0DAF87B681B686021184626
:10250C0000F003F91BE07B6818683B6859683B686E
:10251C00DB681A4600F09CF87B681B684021184663
:10252C0000F0F3F80BE07B681A683B681B681946EF
:10253C00104600F0EAF802E000BF00E000BF7B6844
:10254C00012283F83D207B68002283F83C20002385
:10255C0018461037BD4680BD80B483B000AF78609C
:10256C0000BF0C37BD4680BC704780B483B000AF51
:10257C00786000BF0C37BD4680BC704780B483B018
:10258C0000AF786000BF0C37BD4680BC704780B48C
:10259C0083B000AF786000BF0C37BD4680BC70477D
:1025AC0080B485B000AF786039607B681B68FB60D5
:1025BC007B68254A934207D07B68B3F1804F03D0E8
:1025CC007B68224A934208D1FB6823F07003FB60BE
:1025DC003B685B68FA681343FB607B681A4A93425A
:1025EC0007D07B68B3F1804F03D07B68174A9342C6
:1025FC0008D1FB6823F44073FB603B68DB68FA6826
:10260C001343FB60FB6823F080023B685B69134358
:10261C00FB607B68FA681A603B689A687B68DA62D0
:10262C003B681A687B689A627B68074A934203D1BD
:10263C003B681A697B681A637B6801225A6100BF88
:10264C001437BD4680BC7047002C0140000400408C
:10265C0080B487B000AFF860B9607A60FB681B6A21
:10266C007B61FB681B6A23F00102FB681A62FB6842
:10267C009B693B613B6923F0F0033B617B681B0169
:10268C003A6913433B617B6923F00A037B617A69E6
:10269C00BB6813437B61FB683A699A61FB687A6992
:1026AC001A6200BF1C37BD4680BC704780B487B02F
:1026BC0000AFF860B9607A60FB681B6A23F0100207
:1026CC00FB681A62FB689B697B61FB681B6A3B6158
:1026DC007B6923F470437B617B681B037A6913432A
:1026EC007B613B6923F0A0033B61BB681B013A692A
:1026FC0013433B61FB687A699A61FB683A691A6219
:10270C0000BF1C37BD4680BC704780B485B000AF9D
:10271C00786039607B689B68FB60FB6823F0700312
:10272C00FB603A68FB68134343F00703FB607B686C
:10273C00FA689A6000BF1437BD4680BC704780B4FD
:10274C0087B000AFF860B9607A603B60FB689B684B
:10275C007B617B6923F47F437B613B681A027B6856
:10276C001A43BB6813437A6913437B61FB687A692C
:10277C009A6000BF1C37BD4680BC704780B485B0E2
:10278C0000AF786039607B6893F83C30012B01D145
:10279C00022341E07B68012283F83C207B68022203
:1027AC0083F83D207B681B685B68FB607B681B685B
:1027BC009B68BB60FB6823F07003FB603B681B6885
:1027CC00FA681343FB607B681B68FA685A607B6885
:1027DC001B68144A934209D07B681B68B3F1804F85
:1027EC0004D07B681B68104A93420CD1BB6823F061
:1027FC008003BB603B685B68BA681343BB607B6853
:10280C001B68BA689A607B68012283F83D207B685C
:10281C00002283F83C20002318461437BD4680BCA8
:10282C00704700BF002C01400004004080B483B00E
:10283C0000AF786000BF0C37BD4680BC704780B4D9
:10284C0083B000AF786000BF0C37BD4680BC7047CA
:10285C0070B500260C4D0D4C641BA410A64209D17A
:10286C0000F022F800260A4D0A4C641BA410A64264
:10287C0005D170BD55F8043B98470136EEE755F885
:10288C00043B98470136F2E7EC280008EC280008D6
:10289C00EC280008F028000803460244934200D1BB
:1028AC00704703F8011BF9E7F8B500BFF8BC08BC8A
:1028BC009E467047F8B500BFF8BC08BC9E467047F2
:1028CC0002030405060708090A0B0C0D0E0F101065
:1028DC0000000000000000000102030406070809C4
:0428EC0031010008AE
:0428F0000D010008CE
:1028F4000100020004000800000C0140000C01402B
:10290400000C0140000C0140320014001E000000C5
:102914003F065B4F666D7D077F6F0000010002007C
:1029240004000800100020004000000000080140DE
:10293400000801400008014000080140000801406F
:1029440000080140000801400000000010002000C1
:10295400000C0140000C01400002000400080010BB
:102964000020004000800000000C0140000C0140E9
:10297400000C0140000C0140000C0140000C01401F
:10298400000C014040008000000C0140000C01409C
:0C2994000024F40010000000010000000E
:040000050800124598
:00000001FF
